{
  "contractName": "Voting",
  "abi": [
    {
      "inputs": [],
      "payable": false,
      "stateMutability": "nonpayable",
      "type": "constructor"
    },
    {
      "constant": true,
      "inputs": [
        {
          "internalType": "uint256",
          "name": "",
          "type": "uint256"
        },
        {
          "internalType": "uint256",
          "name": "",
          "type": "uint256"
        }
      ],
      "name": "candidates",
      "outputs": [
        {
          "internalType": "uint256",
          "name": "id",
          "type": "uint256"
        },
        {
          "internalType": "string",
          "name": "name",
          "type": "string"
        },
        {
          "internalType": "string",
          "name": "party",
          "type": "string"
        },
        {
          "internalType": "uint256",
          "name": "voteCount",
          "type": "uint256"
        }
      ],
      "payable": false,
      "stateMutability": "view",
      "type": "function"
    },
    {
      "constant": true,
      "inputs": [],
      "name": "countElections",
      "outputs": [
        {
          "internalType": "uint256",
          "name": "",
          "type": "uint256"
        }
      ],
      "payable": false,
      "stateMutability": "view",
      "type": "function"
    },
    {
      "constant": true,
      "inputs": [
        {
          "internalType": "uint256",
          "name": "",
          "type": "uint256"
        }
      ],
      "name": "elections",
      "outputs": [
        {
          "internalType": "uint256",
          "name": "id",
          "type": "uint256"
        },
        {
          "internalType": "string",
          "name": "name",
          "type": "string"
        },
        {
          "internalType": "uint256",
          "name": "startDate",
          "type": "uint256"
        },
        {
          "internalType": "uint256",
          "name": "endDate",
          "type": "uint256"
        },
        {
          "internalType": "uint256",
          "name": "countCandidates",
          "type": "uint256"
        }
      ],
      "payable": false,
      "stateMutability": "view",
      "type": "function"
    },
    {
      "constant": true,
      "inputs": [
        {
          "internalType": "uint256",
          "name": "",
          "type": "uint256"
        }
      ],
      "name": "eligibleVoterCount",
      "outputs": [
        {
          "internalType": "uint256",
          "name": "",
          "type": "uint256"
        }
      ],
      "payable": false,
      "stateMutability": "view",
      "type": "function"
    },
    {
      "constant": true,
      "inputs": [
        {
          "internalType": "uint256",
          "name": "",
          "type": "uint256"
        },
        {
          "internalType": "address",
          "name": "",
          "type": "address"
        }
      ],
      "name": "eligibleVoters",
      "outputs": [
        {
          "internalType": "bool",
          "name": "",
          "type": "bool"
        }
      ],
      "payable": false,
      "stateMutability": "view",
      "type": "function"
    },
    {
      "constant": true,
      "inputs": [],
      "name": "owner",
      "outputs": [
        {
          "internalType": "address",
          "name": "",
          "type": "address"
        }
      ],
      "payable": false,
      "stateMutability": "view",
      "type": "function"
    },
    {
      "constant": true,
      "inputs": [
        {
          "internalType": "uint256",
          "name": "",
          "type": "uint256"
        },
        {
          "internalType": "address",
          "name": "",
          "type": "address"
        }
      ],
      "name": "voters",
      "outputs": [
        {
          "internalType": "bool",
          "name": "",
          "type": "bool"
        }
      ],
      "payable": false,
      "stateMutability": "view",
      "type": "function"
    },
    {
      "constant": false,
      "inputs": [
        {
          "internalType": "string",
          "name": "_name",
          "type": "string"
        }
      ],
      "name": "createElection",
      "outputs": [
        {
          "internalType": "uint256",
          "name": "",
          "type": "uint256"
        }
      ],
      "payable": false,
      "stateMutability": "nonpayable",
      "type": "function"
    },
    {
      "constant": true,
      "inputs": [],
      "name": "getCountElections",
      "outputs": [
        {
          "internalType": "uint256",
          "name": "",
          "type": "uint256"
        }
      ],
      "payable": false,
      "stateMutability": "view",
      "type": "function"
    },
    {
      "constant": true,
      "inputs": [
        {
          "internalType": "uint256",
          "name": "_electionId",
          "type": "uint256"
        }
      ],
      "name": "getElection",
      "outputs": [
        {
          "internalType": "uint256",
          "name": "",
          "type": "uint256"
        },
        {
          "internalType": "string",
          "name": "",
          "type": "string"
        },
        {
          "internalType": "uint256",
          "name": "",
          "type": "uint256"
        },
        {
          "internalType": "uint256",
          "name": "",
          "type": "uint256"
        },
        {
          "internalType": "uint256",
          "name": "",
          "type": "uint256"
        }
      ],
      "payable": false,
      "stateMutability": "view",
      "type": "function"
    },
    {
      "constant": false,
      "inputs": [
        {
          "internalType": "uint256",
          "name": "_electionId",
          "type": "uint256"
        },
        {
          "internalType": "uint256",
          "name": "_start",
          "type": "uint256"
        },
        {
          "internalType": "uint256",
          "name": "_end",
          "type": "uint256"
        }
      ],
      "name": "setDates",
      "outputs": [],
      "payable": false,
      "stateMutability": "nonpayable",
      "type": "function"
    },
    {
      "constant": true,
      "inputs": [
        {
          "internalType": "uint256",
          "name": "_electionId",
          "type": "uint256"
        }
      ],
      "name": "getDates",
      "outputs": [
        {
          "internalType": "uint256",
          "name": "",
          "type": "uint256"
        },
        {
          "internalType": "uint256",
          "name": "",
          "type": "uint256"
        }
      ],
      "payable": false,
      "stateMutability": "view",
      "type": "function"
    },
    {
      "constant": false,
      "inputs": [
        {
          "internalType": "uint256",
          "name": "_electionId",
          "type": "uint256"
        },
        {
          "internalType": "string",
          "name": "_name",
          "type": "string"
        },
        {
          "internalType": "string",
          "name": "_party",
          "type": "string"
        }
      ],
      "name": "addCandidate",
      "outputs": [
        {
          "internalType": "uint256",
          "name": "",
          "type": "uint256"
        }
      ],
      "payable": false,
      "stateMutability": "nonpayable",
      "type": "function"
    },
    {
      "constant": true,
      "inputs": [
        {
          "internalType": "uint256",
          "name": "_electionId",
          "type": "uint256"
        }
      ],
      "name": "getCountCandidates",
      "outputs": [
        {
          "internalType": "uint256",
          "name": "",
          "type": "uint256"
        }
      ],
      "payable": false,
      "stateMutability": "view",
      "type": "function"
    },
    {
      "constant": true,
      "inputs": [
        {
          "internalType": "uint256",
          "name": "_electionId",
          "type": "uint256"
        },
        {
          "internalType": "uint256",
          "name": "_candidateId",
          "type": "uint256"
        }
      ],
      "name": "getCandidate",
      "outputs": [
        {
          "internalType": "uint256",
          "name": "",
          "type": "uint256"
        },
        {
          "internalType": "string",
          "name": "",
          "type": "string"
        },
        {
          "internalType": "string",
          "name": "",
          "type": "string"
        },
        {
          "internalType": "uint256",
          "name": "",
          "type": "uint256"
        }
      ],
      "payable": false,
      "stateMutability": "view",
      "type": "function"
    },
    {
      "constant": false,
      "inputs": [
        {
          "internalType": "uint256",
          "name": "_electionId",
          "type": "uint256"
        },
        {
          "internalType": "address",
          "name": "_voter",
          "type": "address"
        }
      ],
      "name": "addEligibleVoter",
      "outputs": [],
      "payable": false,
      "stateMutability": "nonpayable",
      "type": "function"
    },
    {
      "constant": true,
      "inputs": [
        {
          "internalType": "uint256",
          "name": "_electionId",
          "type": "uint256"
        },
        {
          "internalType": "address",
          "name": "_voter",
          "type": "address"
        }
      ],
      "name": "isEligible",
      "outputs": [
        {
          "internalType": "bool",
          "name": "",
          "type": "bool"
        }
      ],
      "payable": false,
      "stateMutability": "view",
      "type": "function"
    },
    {
      "constant": true,
      "inputs": [
        {
          "internalType": "uint256",
          "name": "_electionId",
          "type": "uint256"
        }
      ],
      "name": "getEligibleVoterCount",
      "outputs": [
        {
          "internalType": "uint256",
          "name": "",
          "type": "uint256"
        }
      ],
      "payable": false,
      "stateMutability": "view",
      "type": "function"
    },
    {
      "constant": false,
      "inputs": [
        {
          "internalType": "uint256",
          "name": "_electionId",
          "type": "uint256"
        },
        {
          "internalType": "uint256",
          "name": "_candidateId",
          "type": "uint256"
        }
      ],
      "name": "vote",
      "outputs": [],
      "payable": false,
      "stateMutability": "nonpayable",
      "type": "function"
    },
    {
      "constant": true,
      "inputs": [
        {
          "internalType": "uint256",
          "name": "_electionId",
          "type": "uint256"
        }
      ],
      "name": "checkVote",
      "outputs": [
        {
          "internalType": "bool",
          "name": "",
          "type": "bool"
        }
      ],
      "payable": false,
      "stateMutability": "view",
      "type": "function"
    }
  ],
  "bytecode": "0x608060405234801561001057600080fd5b50336000806101000a81548173ffffffffffffffffffffffffffffffffffffffff021916908373ffffffffffffffffffffffffffffffffffffffff160217905550611fb2806100606000396000f3fe608060405234801561001057600080fd5b506004361061012c5760003560e01c80638da5cb5b116100ad578063b384abef11610071578063b384abef146108c7578063beca56e5146108ff578063e2f63deb1461094d578063e6c62efc14610993578063f6cf06ec14610b035761012c565b80638da5cb5b146106ed578063969f6cdf146107375780639d710777146107555780639e31906314610818578063a98d5fc81461087e5761012c565b80635e6fef01116100f45780635e6fef01146104155780635fd52ddd146104d85780636a68583e1461051a5780637614ab5c146105805780637de14242146105c25761012c565b806315cf4a5f146101315780631712c489146102005780634548c326146102425780634bd4644814610284578063592e0e00146103af575b600080fd5b6101ea6004803603602081101561014757600080fd5b810190808035906020019064010000000081111561016457600080fd5b82018360208201111561017657600080fd5b8035906020019184600183028401116401000000008311171561019857600080fd5b91908080601f016020809104026020016040519081016040528093929190818152602001838380828437600081840152601f19601f820116905080830192505050505050509192919290505050610b21565b6040518082815260200191505060405180910390f35b6102406004803603606081101561021657600080fd5b81019080803590602001909291908035906020019092919080359060200190929190505050610d01565b005b61026e6004803603602081101561025857600080fd5b8101908080359060200190929190505050610ef7565b6040518082815260200191505060405180910390f35b6102ba6004803603604081101561029a57600080fd5b810190808035906020019092919080359060200190929190505050610f0f565b604051808581526020018060200180602001848152602001838103835286818151815260200191508051906020019080838360005b8381101561030a5780820151818401526020810190506102ef565b50505050905090810190601f1680156103375780820380516001836020036101000a031916815260200191505b50838103825285818151815260200191508051906020019080838360005b83811015610370578082015181840152602081019050610355565b50505050905090810190601f16801561039d5780820380516001836020036101000a031916815260200191505b50965050505050505060405180910390f35b6103fb600480360360408110156103c557600080fd5b8101908080359060200190929190803573ffffffffffffffffffffffffffffffffffffffff169060200190929190505050611099565b604051808215151515815260200191505060405180910390f35b6104416004803603602081101561042b57600080fd5b8101908080359060200190929190505050611101565b6040518086815260200180602001858152602001848152602001838152602001828103825286818151815260200191508051906020019080838360005b8381101561049957808201518184015260208101905061047e565b50505050905090810190601f1680156104c65780820380516001836020036101000a031916815260200191505b50965050505050505060405180910390f35b610504600480360360208110156104ee57600080fd5b81019080803590602001909291905050506111cf565b6040518082815260200191505060405180910390f35b6105666004803603604081101561053057600080fd5b8101908080359060200190929190803573ffffffffffffffffffffffffffffffffffffffff1690602001909291905050506111ec565b604051808215151515815260200191505060405180910390f35b6105ac6004803603602081101561059657600080fd5b810190808035906020019092919050505061121b565b6040518082815260200191505060405180910390f35b6105f8600480360360408110156105d857600080fd5b81019080803590602001909291908035906020019092919050505061123b565b604051808581526020018060200180602001848152602001838103835286818151815260200191508051906020019080838360005b8381101561064857808201518184015260208101905061062d565b50505050905090810190601f1680156106755780820380516001836020036101000a031916815260200191505b50838103825285818151815260200191508051906020019080838360005b838110156106ae578082015181840152602081019050610693565b50505050905090810190601f1680156106db5780820380516001836020036101000a031916815260200191505b50965050505050505060405180910390f35b6106f56113a8565b604051808273ffffffffffffffffffffffffffffffffffffffff1673ffffffffffffffffffffffffffffffffffffffff16815260200191505060405180910390f35b61073f6113cd565b6040518082815260200191505060405180910390f35b6107816004803603602081101561076b57600080fd5b81019080803590602001909291905050506113d7565b6040518086815260200180602001858152602001848152602001838152602001828103825286818151815260200191508051906020019080838360005b838110156107d95780820151818401526020810190506107be565b50505050905090810190601f1680156108065780820380516001836020036101000a031916815260200191505b50965050505050505060405180910390f35b6108646004803603604081101561082e57600080fd5b8101908080359060200190929190803573ffffffffffffffffffffffffffffffffffffffff1690602001909291905050506114be565b604051808215151515815260200191505060405180910390f35b6108aa6004803603602081101561089457600080fd5b81019080803590602001909291905050506114ed565b604051808381526020018281526020019250505060405180910390f35b6108fd600480360360408110156108dd57600080fd5b810190808035906020019092919080359060200190929190505050611527565b005b61094b6004803603604081101561091557600080fd5b8101908080359060200190929190803573ffffffffffffffffffffffffffffffffffffffff169060200190929190505050611974565b005b6109796004803603602081101561096357600080fd5b8101908080359060200190929190505050611c1b565b604051808215151515815260200191505060405180910390f35b610aed600480360360608110156109a957600080fd5b8101908080359060200190929190803590602001906401000000008111156109d057600080fd5b8201836020820111156109e257600080fd5b80359060200191846001830284011164010000000083111715610a0457600080fd5b91908080601f016020809104026020016040519081016040528093929190818152602001838380828437600081840152601f19601f82011690508083019250505050505050919291929080359060200190640100000000811115610a6757600080fd5b820183602082011115610a7957600080fd5b80359060200191846001830284011164010000000083111715610a9b57600080fd5b91908080601f016020809104026020016040519081016040528093929190818152602001838380828437600081840152601f19601f820116905080830192505050505050509192919290505050611c82565b6040518082815260200191505060405180910390f35b610b0b611ead565b6040518082815260200191505060405180910390f35b60008060009054906101000a900473ffffffffffffffffffffffffffffffffffffffff1673ffffffffffffffffffffffffffffffffffffffff163373ffffffffffffffffffffffffffffffffffffffff1614610be5576040517f08c379a00000000000000000000000000000000000000000000000000000000081526004018080602001828103825260178152602001807f4f6e6c792074686520636f6e7472616374206f776e657200000000000000000081525060200191505060405180910390fd5b6000825111610c5c576040517f08c379a00000000000000000000000000000000000000000000000000000000081526004018080602001828103825260148152602001807f4e616d652063616e6e6f7420626520656d70747900000000000000000000000081525060200191505060405180910390fd5b6001600081548092919060010191905055506040518060a00160405280600154815260200183815260200160008152602001600081526020016000815250600260006001548152602001908152602001600020600082015181600001556020820151816001019080519060200190610cd5929190611eb3565b506040820151816002015560608201518160030155608082015181600401559050506001549050919050565b6000809054906101000a900473ffffffffffffffffffffffffffffffffffffffff1673ffffffffffffffffffffffffffffffffffffffff163373ffffffffffffffffffffffffffffffffffffffff1614610dc3576040517f08c379a00000000000000000000000000000000000000000000000000000000081526004018080602001828103825260178152602001807f4f6e6c792074686520636f6e7472616374206f776e657200000000000000000081525060200191505060405180910390fd5b600083118015610dd557506001548311155b610e47576040517f08c379a00000000000000000000000000000000000000000000000000000000081526004018080602001828103825260108152602001807f496e76616c696420656c656374696f6e0000000000000000000000000000000081525060200191505060405180910390fd5b818111610ebc576040517f08c379a00000000000000000000000000000000000000000000000000000000081526004018080602001828103825260178152602001807f456e64206d75737420626520616674657220737461727400000000000000000081525060200191505060405180910390fd5b816002600085815260200190815260200160002060020181905550806002600085815260200190815260200160002060030181905550505050565b60066020528060005260406000206000915090505481565b60006060806000806003600088815260200190815260200160002060008781526020019081526020016000209050806000015481600101826002018360030154828054600181600116156101000203166002900480601f016020809104026020016040519081016040528092919081815260200182805460018160011615610100020316600290048015610fe45780601f10610fb957610100808354040283529160200191610fe4565b820191906000526020600020905b815481529060010190602001808311610fc757829003601f168201915b50505050509250818054600181600116156101000203166002900480601f0160208091040260200160405190810160405280929190818152602001828054600181600116156101000203166002900480156110805780601f1061105557610100808354040283529160200191611080565b820191906000526020600020905b81548152906001019060200180831161106357829003601f168201915b5050505050915094509450945094505092959194509250565b60006005600084815260200190815260200160002060008373ffffffffffffffffffffffffffffffffffffffff1673ffffffffffffffffffffffffffffffffffffffff16815260200190815260200160002060009054906101000a900460ff16905092915050565b6002602052806000526040600020600091509050806000015490806001018054600181600116156101000203166002900480601f0160208091040260200160405190810160405280929190818152602001828054600181600116156101000203166002900480156111b35780601f10611188576101008083540402835291602001916111b3565b820191906000526020600020905b81548152906001019060200180831161119657829003601f168201915b5050505050908060020154908060030154908060040154905085565b600060066000838152602001908152602001600020549050919050565b60056020528160005260406000206020528060005260406000206000915091509054906101000a900460ff1681565b600060026000838152602001908152602001600020600401549050919050565b600360205281600052604060002060205280600052604060002060009150915050806000015490806001018054600181600116156101000203166002900480601f0160208091040260200160405190810160405280929190818152602001828054600181600116156101000203166002900480156112fa5780601f106112cf576101008083540402835291602001916112fa565b820191906000526020600020905b8154815290600101906020018083116112dd57829003601f168201915b505050505090806002018054600181600116156101000203166002900480601f0160208091040260200160405190810160405280929190818152602001828054600181600116156101000203166002900480156113985780601f1061136d57610100808354040283529160200191611398565b820191906000526020600020905b81548152906001019060200180831161137b57829003601f168201915b5050505050908060030154905084565b6000809054906101000a900473ffffffffffffffffffffffffffffffffffffffff1681565b6000600154905090565b60006060600080600080600260008881526020019081526020016000209050806000015481600101826002015483600301548460040154838054600181600116156101000203166002900480601f0160208091040260200160405190810160405280929190818152602001828054600181600116156101000203166002900480156114a35780601f10611478576101008083540402835291602001916114a3565b820191906000526020600020905b81548152906001019060200180831161148657829003601f168201915b50505050509350955095509550955095505091939590929450565b60046020528160005260406000206020528060005260406000206000915091509054906101000a900460ff1681565b6000806002600084815260200190815260200160002060020154600260008581526020019081526020016000206003015491509150915091565b600060026000848152602001908152602001600020905060008311801561155057506001548311155b6115c2576040517f08c379a00000000000000000000000000000000000000000000000000000000081526004018080602001828103825260108152602001807f496e76616c696420656c656374696f6e0000000000000000000000000000000081525060200191505060405180910390fd5b6005600084815260200190815260200160002060003373ffffffffffffffffffffffffffffffffffffffff1673ffffffffffffffffffffffffffffffffffffffff16815260200190815260200160002060009054906101000a900460ff16611675576040517f08c379a0000000000000000000000000000000000000000000000000000000008152600401808060200182810382526025815260200180611f596025913960400191505060405180910390fd5b60008160020154116116ef576040517f08c379a00000000000000000000000000000000000000000000000000000000081526004018080602001828103825260158152602001807f566f74696e6720706572696f64206e6f7420736574000000000000000000000081525060200191505060405180910390fd5b806002015442101580156117065750806003015442105b611778576040517f08c379a00000000000000000000000000000000000000000000000000000000081526004018080602001828103825260188152602001807f4e6f742077697468696e20766f74696e6720706572696f64000000000000000081525060200191505060405180910390fd5b60008211801561178c575080600401548211155b6117fe576040517f08c379a00000000000000000000000000000000000000000000000000000000081526004018080602001828103825260118152602001807f496e76616c69642063616e64696461746500000000000000000000000000000081525060200191505060405180910390fd5b6004600084815260200190815260200160002060003373ffffffffffffffffffffffffffffffffffffffff1673ffffffffffffffffffffffffffffffffffffffff16815260200190815260200160002060009054906101000a900460ff16156118cf576040517f08c379a000000000000000000000000000000000000000000000000000000000815260040180806020018281038252601e8152602001807f416c726561647920766f74656420696e207468697320656c656374696f6e000081525060200191505060405180910390fd5b60016004600085815260200190815260200160002060003373ffffffffffffffffffffffffffffffffffffffff1673ffffffffffffffffffffffffffffffffffffffff16815260200190815260200160002060006101000a81548160ff02191690831515021790555060036000848152602001908152602001600020600083815260200190815260200160002060030160008154809291906001019190505550505050565b6000809054906101000a900473ffffffffffffffffffffffffffffffffffffffff1673ffffffffffffffffffffffffffffffffffffffff163373ffffffffffffffffffffffffffffffffffffffff1614611a36576040517f08c379a00000000000000000000000000000000000000000000000000000000081526004018080602001828103825260178152602001807f4f6e6c792074686520636f6e7472616374206f776e657200000000000000000081525060200191505060405180910390fd5b600082118015611a4857506001548211155b611aba576040517f08c379a00000000000000000000000000000000000000000000000000000000081526004018080602001828103825260108152602001807f496e76616c696420656c656374696f6e0000000000000000000000000000000081525060200191505060405180910390fd5b6005600083815260200190815260200160002060008273ffffffffffffffffffffffffffffffffffffffff1673ffffffffffffffffffffffffffffffffffffffff16815260200190815260200160002060009054906101000a900460ff1615611b8b576040517f08c379a00000000000000000000000000000000000000000000000000000000081526004018080602001828103825260108152602001807f416c726561647920656c696769626c650000000000000000000000000000000081525060200191505060405180910390fd5b60016005600084815260200190815260200160002060008373ffffffffffffffffffffffffffffffffffffffff1673ffffffffffffffffffffffffffffffffffffffff16815260200190815260200160002060006101000a81548160ff02191690831515021790555060066000838152602001908152602001600020600081548092919060010191905055505050565b60006004600083815260200190815260200160002060003373ffffffffffffffffffffffffffffffffffffffff1673ffffffffffffffffffffffffffffffffffffffff16815260200190815260200160002060009054906101000a900460ff169050919050565b60008060009054906101000a900473ffffffffffffffffffffffffffffffffffffffff1673ffffffffffffffffffffffffffffffffffffffff163373ffffffffffffffffffffffffffffffffffffffff1614611d46576040517f08c379a00000000000000000000000000000000000000000000000000000000081526004018080602001828103825260178152602001807f4f6e6c792074686520636f6e7472616374206f776e657200000000000000000081525060200191505060405180910390fd5b600084118015611d5857506001548411155b611dca576040517f08c379a00000000000000000000000000000000000000000000000000000000081526004018080602001828103825260108152602001807f496e76616c696420656c656374696f6e0000000000000000000000000000000081525060200191505060405180910390fd5b600260008581526020019081526020016000206004016000815480929190600101919050555060006002600086815260200190815260200160002060040154905060405180608001604052808281526020018581526020018481526020016000815250600360008781526020019081526020016000206000838152602001908152602001600020600082015181600001556020820151816001019080519060200190611e77929190611eb3565b506040820151816002019080519060200190611e94929190611eb3565b5060608201518160030155905050809150509392505050565b60015481565b828054600181600116156101000203166002900490600052602060002090601f016020900481019282601f10611ef457805160ff1916838001178555611f22565b82800160010185558215611f22579182015b82811115611f21578251825591602001919060010190611f06565b5b509050611f2f9190611f33565b5090565b611f5591905b80821115611f51576000816000905550600101611f39565b5090565b9056fe4e6f7420656c696769626c6520746f20766f746520696e207468697320656c656374696f6ea265627a7a72315820e65847c5a7421d443eb6610e1ebcf5bffc174cab1812b9ad4295e27da74572b264736f6c63430005100032",
  "source": "pragma solidity ^0.5.15;\n\ncontract Voting {\n\n    struct Candidate {\n        uint id;\n        string name;\n        string party;\n        uint voteCount;\n    }\n\n    struct Election {\n        uint id;\n        string name;\n        uint256 startDate;\n        uint256 endDate;\n        uint countCandidates;\n    }\n\n    address public owner;\n    uint public countElections;\n\n    mapping(uint => Election) public elections;\n    mapping(uint => mapping(uint => Candidate)) public candidates;\n    mapping(uint => mapping(address => bool)) public voters;\n    mapping(uint => mapping(address => bool)) public eligibleVoters;\n    mapping(uint => uint) public eligibleVoterCount;\n\n    constructor() public {\n        owner = msg.sender;\n    }\n\n    modifier onlyOwner() {\n        require(msg.sender == owner, \"Only the contract owner\");\n        _;\n    }\n\n    // ── Election management ─────────────────────────────────────────────────\n\n    function createElection(string memory _name) public onlyOwner returns (uint) {\n        require(bytes(_name).length > 0, \"Name cannot be empty\");\n        countElections++;\n        elections[countElections] = Election(countElections, _name, 0, 0, 0);\n        return countElections;\n    }\n\n    function getCountElections() public view returns (uint) {\n        return countElections;\n    }\n\n    function getElection(uint _electionId) public view returns (\n        uint, string memory, uint256, uint256, uint\n    ) {\n        Election storage e = elections[_electionId];\n        return (e.id, e.name, e.startDate, e.endDate, e.countCandidates);\n    }\n\n    // ── Voting period ───────────────────────────────────────────────────────\n\n    function setDates(uint _electionId, uint256 _start, uint256 _end) public onlyOwner {\n        require(_electionId > 0 && _electionId <= countElections, \"Invalid election\");\n        require(_end > _start, \"End must be after start\");\n        elections[_electionId].startDate = _start;\n        elections[_electionId].endDate   = _end;\n    }\n\n    function getDates(uint _electionId) public view returns (uint256, uint256) {\n        return (elections[_electionId].startDate, elections[_electionId].endDate);\n    }\n\n    // ── Candidate management ────────────────────────────────────────────────\n\n    function addCandidate(uint _electionId, string memory _name, string memory _party) public onlyOwner returns (uint) {\n        require(_electionId > 0 && _electionId <= countElections, \"Invalid election\");\n        elections[_electionId].countCandidates++;\n        uint newId = elections[_electionId].countCandidates;\n        candidates[_electionId][newId] = Candidate(newId, _name, _party, 0);\n        return newId;\n    }\n\n    function getCountCandidates(uint _electionId) public view returns (uint) {\n        return elections[_electionId].countCandidates;\n    }\n\n    function getCandidate(uint _electionId, uint _candidateId) public view returns (\n        uint, string memory, string memory, uint\n    ) {\n        Candidate storage c = candidates[_electionId][_candidateId];\n        return (c.id, c.name, c.party, c.voteCount);\n    }\n\n    // ── Voter eligibility ───────────────────────────────────────────────────\n\n    function addEligibleVoter(uint _electionId, address _voter) public onlyOwner {\n        require(_electionId > 0 && _electionId <= countElections, \"Invalid election\");\n        require(!eligibleVoters[_electionId][_voter], \"Already eligible\");\n        eligibleVoters[_electionId][_voter] = true;\n        eligibleVoterCount[_electionId]++;\n    }\n\n    function isEligible(uint _electionId, address _voter) public view returns (bool) {\n        return eligibleVoters[_electionId][_voter];\n    }\n\n    function getEligibleVoterCount(uint _electionId) public view returns (uint) {\n        return eligibleVoterCount[_electionId];\n    }\n\n    // ── Voting ──────────────────────────────────────────────────────────────\n\n    function vote(uint _electionId, uint _candidateId) public {\n        Election storage e = elections[_electionId];\n        require(_electionId > 0 && _electionId <= countElections, \"Invalid election\");\n        require(eligibleVoters[_electionId][msg.sender], \"Not eligible to vote in this election\");\n        require(e.startDate > 0, \"Voting period not set\");\n        require(now >= e.startDate && now < e.endDate, \"Not within voting period\");\n        require(_candidateId > 0 && _candidateId <= e.countCandidates, \"Invalid candidate\");\n        require(!voters[_electionId][msg.sender], \"Already voted in this election\");\n        voters[_electionId][msg.sender] = true;\n        candidates[_electionId][_candidateId].voteCount++;\n    }\n\n    function checkVote(uint _electionId) public view returns (bool) {\n        return voters[_electionId][msg.sender];\n    }\n}\n",
  "sourcePath": "C:\\Users\\Asus\\OneDrive\\Desktop\\Git Projects\\BlockVote\\blockchain\\contracts\\Voting.sol",
  "compiler": {
    "name": "solc",
    "version": "0.5.16+commit.9c3226ce.Emscripten.clang"
  },
  "schemaVersion": "3.4.16",
  "updatedAt": "2026-05-05T17:26:39.128Z",
  "networkType": "ethereum",
  "devdoc": {
    "methods": {}
  },
  "userdoc": {
    "methods": {}
  }
}